{
  "transactions": [
    {
      "hash": "0x3935592af80ceb670349e959961a409016f82474ada84073569d494b79500207",
      "transactionType": "CALL",
      "contractName": null,
      "contractAddress": "0xac33fda62b66c2cbea0d294e4026a51518df956f",
      "function": "updateBaseURI(uint8,string)",
      "arguments": [
        "1",
        "ipfs://bafkreie3swmwang3rgfy4smb2nd2x72ysxy7qrtz7nqfwq3kufvhmoexvi"
      ],
      "transaction": {
        "from": "0xbae8464be362723c797b146773f53ee879794623",
        "to": "0xac33fda62b66c2cbea0d294e4026a51518df956f",
        "gas": "0x11467",
        "value": "0x0",
        "input": "0x795302d3000000000000000000000000000000000000000000000000000000000000000100000000000000000000000000000000000000000000000000000000000000400000000000000000000000000000000000000000000000000000000000000042697066733a2f2f6261666b726569653373776d77616e67337267667934736d62326e643278373279737879377172747a376e71667771336b756676686d6f65787669000000000000000000000000000000000000000000000000000000000000",
        "nonce": "0x187",
        "chainId": "0x279f"
      },
      "additionalContracts": [],
      "isFixedGasLimit": false
    },
    {
      "hash": "0xe0ec6f96c671f4c4455e21e64e80c6d140d7da36cac2d5d7441bc949c2a644f4",
      "transactionType": "CALL",
      "contractName": null,
      "contractAddress": "0xac33fda62b66c2cbea0d294e4026a51518df956f",
      "function": "updateBaseURI(uint8,string)",
      "arguments": [
        "2",
        "ipfs://bafkreie7jifh5xxtgw37szbdtjdiucuwv6p62awth6y44u2ztkmrkoymui"
      ],
      "transaction": {
        "from": "0xbae8464be362723c797b146773f53ee879794623",
        "to": "0xac33fda62b66c2cbea0d294e4026a51518df956f",
        "gas": "0x114aa",
        "value": "0x0",
        "input": "0x795302d3000000000000000000000000000000000000000000000000000000000000000200000000000000000000000000000000000000000000000000000000000000400000000000000000000000000000000000000000000000000000000000000042697066733a2f2f6261666b72656965376a6966683578787467773337737a6264746a6469756375777636703632617774683679343475327a746b6d726b6f796d7569000000000000000000000000000000000000000000000000000000000000",
        "nonce": "0x188",
        "chainId": "0x279f"
      },
      "additionalContracts": [],
      "isFixedGasLimit": false
    }
  ],
  "receipts": [
    {
      "status": "0x1",
      "cumulativeGasUsed": "0xc2e094",
      "logs": [
        {
          "address": "0xac33fda62b66c2cbea0d294e4026a51518df956f",
          "topics": [
            "0x6b2f2af56f5278465249175a3f38d73d4ec9f2e82a78075366f133a320794b9e"
          ],
          "data": "0x000000000000000000000000000000000000000000000000000000000000000100000000000000000000000000000000000000000000000000000000000000400000000000000000000000000000000000000000000000000000000000000042697066733a2f2f6261666b726569653373776d77616e67337267667934736d62326e643278373279737879377172747a376e71667771336b756676686d6f65787669000000000000000000000000000000000000000000000000000000000000",
          "blockHash": "0xf83ca000fb52fb475a3c3f769f2285f33bc3b0dd3cc61c774a5d6118edb41b0b",
          "blockNumber": "0x16bc72f",
          "blockTimestamp": "0x6860d2e6",
          "transactionHash": "0x3935592af80ceb670349e959961a409016f82474ada84073569d494b79500207",
          "transactionIndex": "0x32",
          "logIndex": "0x98",
          "removed": false
        }
      ],
      "logsBloom": "0x00000000000000000000000000000000000000000000000000000000000000000000000000000000000000000000040000000000000000000000000000000000000000000000000000000000000000000000000000000000000000000000000000000000000000000000000000000000000000000000000000000000000000000000000000000000000000000020000000000000000000000000000000000200000000000000000000000000000000000000000000000000000000000000000000000000000000000000400000000000000000000000000000000000000000000000002000000000000000000000000000000000000000000000000000000040",
      "type": "0x2",
      "transactionHash": "0x3935592af80ceb670349e959961a409016f82474ada84073569d494b79500207",
      "transactionIndex": "0x32",
      "blockHash": "0xf83ca000fb52fb475a3c3f769f2285f33bc3b0dd3cc61c774a5d6118edb41b0b",
      "blockNumber": "0x16bc72f",
      "gasUsed": "0x11467",
      "effectiveGasPrice": "0xba43b7401",
      "from": "0xbae8464be362723c797b146773f53ee879794623",
      "to": "0xac33fda62b66c2cbea0d294e4026a51518df956f",
      "contractAddress": null
    },
    {
      "status": "0x1",
      "cumulativeGasUsed": "0x81aaa2",
      "logs": [
        {
          "address": "0xac33fda62b66c2cbea0d294e4026a51518df956f",
          "topics": [
            "0x6b2f2af56f5278465249175a3f38d73d4ec9f2e82a78075366f133a320794b9e"
          ],
          "data": "0x000000000000000000000000000000000000000000000000000000000000000200000000000000000000000000000000000000000000000000000000000000400000000000000000000000000000000000000000000000000000000000000042697066733a2f2f6261666b72656965376a6966683578787467773337737a6264746a6469756375777636703632617774683679343475327a746b6d726b6f796d7569000000000000000000000000000000000000000000000000000000000000",
          "blockHash": "0x3467c57e7d5e9c6cf09197b3f0de986fc0fd312fbb64a9648424dcf95ee33e83",
          "blockNumber": "0x16bc730",
          "blockTimestamp": "0x6860d2e6",
          "transactionHash": "0xe0ec6f96c671f4c4455e21e64e80c6d140d7da36cac2d5d7441bc949c2a644f4",
          "transactionIndex": "0x3f",
          "logIndex": "0x96",
          "removed": false
        }
      ],
      "logsBloom": "0x00000000000000000000000000000000000000000000000000000000000000000000000000000000000000000000040000000000000000000000000000000000000000000000000000000000000000000000000000000000000000000000000000000000000000000000000000000000000000000000000000000000000000000000000000000000000000000020000000000000000000000000000000000200000000000000000000000000000000000000000000000000000000000000000000000000000000000000400000000000000000000000000000000000000000000000002000000000000000000000000000000000000000000000000000000040",
      "type": "0x2",
      "transactionHash": "0xe0ec6f96c671f4c4455e21e64e80c6d140d7da36cac2d5d7441bc949c2a644f4",
      "transactionIndex": "0x3f",
      "blockHash": "0x3467c57e7d5e9c6cf09197b3f0de986fc0fd312fbb64a9648424dcf95ee33e83",
      "blockNumber": "0x16bc730",
      "gasUsed": "0x114aa",
      "effectiveGasPrice": "0xba43b7401",
      "from": "0xbae8464be362723c797b146773f53ee879794623",
      "to": "0xac33fda62b66c2cbea0d294e4026a51518df956f",
      "contractAddress": null
    }
  ],
  "libraries": [],
  "pending": [],
  "returns": {},
  "timestamp": 1751175912,
  "chain": 10143,
  "commit": "b4c5c6e"
}